:100000000EC028C027C026C025C024C023C022C0DF
:1000100021C020C01FC01EC01DC01CC01BC0112499
:100020001FBECFE5D2E0DEBFCDBF10E0A0E6B0E05E
:10003000E2EEF1E002C005900D92A436B107D9F7C7
:1000400020E0A4E6B0E001C01D92A836B207E1F7B7
:1000500025D0C5C0D5CF8091640089BD8091620054
:1000600088BD809160008BBD089587B38B6087BB8E
:100070008CB587608CBD8AB5836F8ABD83B783607A
:1000800083BF80B7876080BF8CB580658CBD8FEFE4
:100090008DBDE1DF8CB5887F8CBD0895E6DF8FE6EE
:1000A00094E90197F1F700C00000C0E0D0E00F2E06
:1000B000F6E0EF2EF12CF02D00E010E00CC0809166
:1000C0006600909167000196B70162D09093670037
:1000D00080936600E801809166009091670082300D
:1000E0009105B1F134F40097F9F0019709F043C09C
:1000F00007C08430910571F00CF10597E1F532C02D
:1001000080916400909165000196909365008093C2
:10011000640031C0809164009091650001979093D4
:1001200065008093640027C0809162009091630015
:10013000019790936300809362001DC080916200DC
:10014000909163000196909363008093620013C0C6
:10015000809160009091610001979093610080937D
:10016000600009C0809160009091610001969093B9
:100170006100809360006FDF21968FE694E901971C
:10018000F1F700C00000CF3FD1050CF098CFA3CF0E
:1001900097FB072E16F4009406D077FD08D00BD0FD
:1001A00007FC05D03EF4909581959F4F089570957A
:1001B00061957F4F0895AA1BBB1B51E107C0AA1F81
:1001C000BB1FA617B70710F0A61BB70B881F991FF8
:1001D0005A95A9F780959095BC01CD010895F894A2
:0201E000FFCF4F
:0401E200FF00FF001B
:00000001FF
